:400000000080002011000000C5070000C507000008B5044B1A6803F53F5302331A6000F0F1FB00BFFA46004010B5054C237833B9044B13B10448AFF300800123237010BDF3
:400040005081FF1F000000000C1D0000084B10B51BB108490848AFF300800848036803B910BD074B002BFBD0BDE81040184700BF000000005481FF1F0C1D0000C880FF1FA0
:400080000000000010B500F0D7FC212805D1434B00221A7001225A7010BD572802D101223E4B1A703D4B1B78012B6AD12C2823D13B4B93F900403B4801F022F904EB44043B
:4000C0006300394A134458800022384B1A7006E0324A1A44002111710133344A1370334B1B782E4A127D9342F2D300222B4B1A75FF222B4B1A7010BD294B93F90030B3F189
:40010000FF3F1ED10022294B1A7015E003EB43014A0025498A5C90420BD1214A137003EB43014A0020490A44527812B901211B4A517501331D4A13701C4B1B78012BE5D9FA
:4001400010BD164A527D012A14D1412807D103EB43035A00144B1A440023137106E003EB43035A00104B1A440123137100220B4B5A7510BD094A137DD11808710133137556
:4001800010BD522803D10222044B5A7010BD412802D10322014B5A7010BD00BF6C81FF1FCC80FF1F7081FF1FA481FF1FB081FF1F10B4134BAA221A700221597004229A706D
:4001C000104A5A60104B41241C7000225A705A80422018715971DA8043211972032159725A814421197301215973DA81074B1C705A701A715A809871D9711A8110BC704759
:40020000B481FF1F101D0000BC81FF1FA481FF1F10B50446174B03EB80035B78012B17D1012000F0C9FF0A2000F048FB002000F0C3FF642000F042FB01F048F80028FBD1F9
:4002400001F03AF80B4B03EB84044042608010BDC0B200F081FE00F035FE0A2000F02EFB00F040FE034B03EB8404608000F032FE10BD00BFBC81FF1F10B59EB062B6474886
:4002800000F082FBFFF794FF00F008FE00F0C6FB01F004F8424800F0F1FB424B586800F0EDFB002000F0FCFB3F4B187A00F07AFB0020FFF7ADFF0120FFF7AAFF0220FFF707
:4002C000A7FF0320FFF7A4FF384B5B78012B1FD1354C207A00F066FB012000F06FF8207900F07EF8012406E000F08CF80F2000F0E5FA0134A4B22C4B5B889C42F4D9002416
:40030000294B5C80204600F059F8284B5C7041E0022B27D15B2000F0A5FB002419E0244A12F8243002EB84025178528801920091204A642105A801F027F805A800F09EFB31
:40034000032C02D02C2000F08DFB002000F0A8FB0134032CE3DD5D2000F084FB0022134B5A7017E0032B15D10E4A13785178907852680292019000910F4A642105A801F000
:4003800003F805A800F07AFB002000F089FB0022064B5A70012000F091FA89E7850000002C1D0000B481FF1FA481FF1F6C81FF1FBC81FF1F381D00006C1D000008B530B905
:4003C00000F092FB00F0060000F088FB08BD00F08BFB40F00100C0B200F080FB08BD00BF08B530B900F080FB00F0030000F076FB08BD00F079FB40F00400C0B200F06EFBBD
:4004000008BD00BF08B500F06FFB80F00200C0B200F064FB00F068FB80F00200C0B200F05DFB08BDFEE700BFF0B40022174611E050F82760F3B226F0FF0608E001EB420548
:4004400011F812406D78A5550132013BDBB2002BF4D101371B2FEBD9F0BC70470A4B1B78DBB203F00701094A11701B09013213703022074B1A706022C0331A704422A3F267
:40048000E2231A70704700BFCF0100496E580040985A004008B50A46002100F06CFF08BD08B500F05DFF08BD38B50024314B1C80502202331A70172202331A8018232E4AB5
:4004C00013701925023215800232137004222B492B48FFF7E5FF02222A4B1A7008224FF040231A70032103F500731970264B1B78DBB226490B70264B1A8041F25122023BDA
:400500001A800CE0234B1B7803F0010343EA440404F003044FF4F07000F0E2FE013D0DB1032CEFD115B90320FFF77CFF1A4B4FF480721A8007221A70002218490A704820C1
:40054000023108701A700222033B1A7004220A331A70134A137843F007031370013A137843F001031370013A137843F08003137038BD00BF8040004086400040A40400489C
:40058000004100400043004008010049A146004022420040254200400440004006400040A243004001238340022823D8DBB2124A127813421ED110B40F4913430B700F4B3A
:4005C00053F820201844047B137823431370037C19440A7942B9094A02EB830149691A44107F0A7802430A70034A13441A7901321A7110BC704700BF8481FF1FB01D0000FC
:4006000001238340022824D8DBB2124A127813421FD010B40F4922EA03030B700E4B53F820201844047B137823EA04031370007C0A181379013BDBB213714BB9064B03EBB2
:40064000800252691844017F137823EA0103137010BC70478481FF1FB01D0000012809D8054B03EB8002126A184490F8281013780B431370704700BFB01D000001280AD8C3
:40068000054B03EB8002126A184490F82810137823EA010313707047B01D000038B572B6364A137843F00403137000240BE0344863001A19510001440A46098ED06AFFF794
:4006C000E9FE0134E4B2092CF1D900240BE02C49A3001819420088188022C16E806EFFF7DFFE0134E4B2002CF1D026494FF09040FFF79AFE0A25244B1D70244A137843F062
:40070000020313701032137843F002031370204C237843F040032370A2F58632513A137843F01003137008221A491B48FFF7B8FE08221A491A48FFF7B3FE082219491A484B
:40074000FFF7AEFE2A4619491948FFF7A9FE194A137843F008031370174D61232B70FFF7A3FE81232B700122144B1A70FFF776FE0E2221461248FFF793FE38BDE8460040AE
:40078000B01D0000700000488358004003500140A043004080040048025100408804004812510040900400482251004098040048305100402243004000480040040008405F
:4007C000B043004008B500F09FFD03680C2B00D1FEE7FEE708B5094B1A681044084BC31A802B02DC054B186005E000F08DFD0C2303604FF0FF32104608BD00BFD080FF1F2F
:40080000D881FF1F08B5104E104D16E029686B68AC68002204E051F8040B43F8040B0432A242F8D1E868002203E0002143F8041B04328242F9D11035013E002EE6D100F0E3
:4008400069FDFFF719FDFEE7010000007C1F000008B5104A104B1A60104A136843F40073136000230AE0032B03D80D4A52F8231000E00C490C4A42F8231001332F2BF2D96C
:400880000A4B1A780A4B1A70074A0A4B1A60FFF705FF08BD0004FA050CED00E014ED00E000000000C50700000080FF1FBC760040C080FF1F08ED00E001BE704710B5044642
:4008C00005E0084B186800F00BFDA4F50044B4F5004FF6D8034B586800FB04F000F000FD10BD00BFD480FF1F08B5034B1B7A00FB03F000F0F5FC08BDD480FF1F70B50446A8
:400900000E46074B1D681F2802D90020FFF7D4FF04F01F04103455F8240045F8246070BD08ED00E038B504460D46072902D90020FFF7C2FF1F2C02D90020FFF7BDFF04F09A
:400940001F0000F1604000F564406D01EDB2057038BD00BF014B1B681864704708ED00E04001C0B2014B1870704700BF00E400E00122014B1A60704700E100E00122014B90
:400980001A60704780E100E010B50446FFF7F6FF2046FFF7DFFF0720FFF7E2FFFFF7E8FF10BD00BF044A137803F08703C00000F07800184310707047205100407222084B82
:4009C0001A70202201331A700622A3F25F131A70472210331A7000224F331A70704700BF8565004010B500F083FC04460A4A137843F0200313700132137843F010031370F3
:400A0000A2F58072137843F01003137000F058F8204600F071FC10BD9565004008B5054B1B7823B9FFF7CAFF0122024B1A70FFF7D9FF08BD8A81FF1F084B1B78DBB213F068
:400A4000200F06D0064A1078C0B213F01E0F02D17047002070470020704700BF6665004045650040034B1B7813F0040FFAD1024B18707047666400404664004038B5074B8A
:400A80001B782BB938BDFFF7EDFF0134A4B201E005460024285D0028F5D138BD8A81FF1F08B5064B1B783BB1FFF7DCFF0D20FFF7D9FF0A20FFF7D6FF08BD00BF8A81FF1F81
:400AC000054A137843F0040313701032137843F004031370704700BFA2430040014B1870704700BF77640040014B1878704700BF7764004010B59DF80840012C51D101383E
:400B000009282ED8DFE800F0052D2D052D2D0F192D230F2B03D92548007840B222E02448007840B21EE00F2B03D92248007840B218E02148007840B214E00F2B03D91F48A8
:400B4000007840B20EE01E48007840B20AE00F2B03D91C48007840B204E01B48007840B200E0002001EB401101FB02F1C90B8AB20D2B0BD8C3F10E0289B211418AB2611E6B
:400B8000124800EB810101338B7005E0631E0F4901EB83030F219970013C0C4B23F8242010BD0020FFF788FE10BD00BF180100491C010049190100491D0100491A010049F8
:400BC0001E0100491B0100491F0100498C81FF1FF8B5074600F08CFB06460D4D2B7843F003032B700B4C237843F0030323700A4B1F700320FFF778FE2B7803F0FC032B70A5
:400C0000237803F0FC032370304600F075FBF8BDF8460040F94600409258004038B50022304B1A7101285BD138222F4B1A70042202331A70062201331A70002401331C706B
:400C400001331C703F2201331A7002331C7001331C7001331C7001250A331D70502203F527631A70072201331A70292201331A7001331C70552203331A705A2201331A70C5
:400C800001331C7002331C7001331C700A2201331A70432201331A704420FFF799FF5822124B1A7001331C700223114A137001321370104B1C7001331C70204600F068F9BC
:400CC00042F6AB120C4B1A602946052000F084F92946BA2000F004FA08491D20FFF70EFE38BD00BF8C81FF1F004E0040945800409A5800409C580040CC81FF1F350F0000B8
:400D0000F0B583B0284D01272F70284E00247471102000F04FF9102000F0D0F907211D20FFF700FE0422224B1A7001331C7007331C70204A137843F0180313701E4B1C7018
:400D400003F2F5231C7001331C700A22A3F209331A7001331C7002331C705B2205331A705E2201331A7004331C701422A3F68C231A70009710234FF4004247F602710320A8
:400D8000FFF7B8FE2B78013B06EB83039A780B4B1A702B78013B36F82320094B1A802878FFF73CFF03B0F0BDE480FF1F8C81FF1F96580040075B0040935800400E4E00408C
:400DC0000C4E004070B500F093FA06462A4B1B782A4B1A7842F001021A701A7842F010021A7010331A7842F001021A701A7842F010021A70224D2B7843F002032B70214CF7
:400E0000237843F0020323701F4A137843F0030313700320FFF768FD2B7803F0FD032B70237803F0FD032370184A137843F0060313707A22164B1A70164A137843F0010377
:400E400013701032137843F0010313700F3A137843F0010313701032137843F0010313704FF000530C4A1360A2F5C0721360304600F042FA70BD00BFE480FF1FAA4300407F
:400E8000F8460040F9460040915800407758004082580040A143004080E200E008B5084B9B794BB9064BDB7913F0FF0F01D1FFF727FF0122024B9A71FFF784FF08BD00BF39
:400EC0008C81FF1F024A137843F0010313707047004E0040024A137803F0FE0313707047004E00400E4B1B7803F00303012B03D80C4B188880B209E00A4A12780A490878AF
:400F000042EA0020032B01D1084B1B78084B1B7913F0FF0F02D00022054B5A7100B27047144E0040104E0040114E0040124E00408C81FF1F704700BF10B5002404E02046BC
:400F4000FFF75EFB0134E4B2022CF8D9FF22014B1A7010BDE580FF1F10B50446FFF7ECFF2046FFF71FFB014B1C7010BDE580FF1F10B5002404E02046FFF780FB0134E4B214
:400F8000012CF8D9FF22014B1A7010BDE680FF1F10B50446FFF7ECFF2046FFF75FFB014B1C7010BDE680FF1F014B188880B2704780400040034B1A7800F0F80010431870A4
:400FC000704700BF82400040024B187800F00700704700BF8240004070B505460E46FFF7F3FF0446FFF7E0FFA84256D02B4B1B7803F0010294B900B185B938B9284B1D8016
:40100000284A137803F0BF03137070BD254A137843F040031370224B1D8070BD22B3002321490B7001240F310C7004310B700C390B7803F07F030B701A4B1B7813F0080FEC
:4010400000D08DB9194B18800721013B1970164B1B7813F0010FFAD110490B7803F0FE030B700021104B19700C4B1B7813F0010F0DD00E4B1D800EB1032200E001220A4B43
:401080001A70094B1B7813F0010FFAD170BD044B1D8002490B7813430B7070BDA243004080400040824000400140004002400040014B188880B2704700410040034B1A789C
:4010C00000F0F80010431870704700BF02410040024B187800F00700704700BF0241004070B505460E46FFF7F3FF0446FFF7E0FFA84256D02B4B1B7803F0010294B900B18F
:4011000085B938B9284B1D80284A137803F0BF03137070BD254A137843F040031370224B1D8070BD22B3002321490B70012413310C7004390B7008390B7803F07F030B70B6
:401140001A4B1B7813F0080F00D08DB9194B18800721013B1970164B1B7813F0010FFAD110490B7803F0FE030B700021104B19700C4B1B7813F0010F0DD00E4B1D800EB1AD
:40118000032200E001220A4B1A70094B1B7813F0010FFAD170BD044B1D8002490B7813430B7070BDA143004000410040024100400140004002400040014B1870704700BF09
:4011C00076640040084A137843F0010313701032137843F00103137002F64D32137843F001031370704700BFA3430040014B1870704700BF034F0040014B1880704700BF29
:40120000044F0040014B1880704700BF064F004008B51F4A137803F0010313701D4B1A7802F0FC021A701A7802F0F3021A701A7842F00C021A701A7802F07F021A701A780D
:4012400042F080021A701A78D2B21A7009331A7802F0CF021A701A7842F030021A701A7802F0F0021A701A7842F00F021A700A4A137843F0010313704FF6FF70FFF7BCFF98
:401280004FF6FF70FFF7BEFF0020FFF7AFFF08BD004F0040024F0040014F004008B5054B1B7823B9FFF7B4FF0122024B1A70FFF789FF08BD9881FF1F024B1B88024B188818
:4012C00080B27047064F0040084F0040024B1878C0F34000704700BF21510040000000000230800803D000BF01380046FCD17047EFF3108072B6704780F31088704700BFC0
:401300000A22002100F0F8B8014B1868704700BF4881FF1F0E4B70B51E460E4C0025E41AA410A54204D056F8253098470135F8E700F012FE084B094C1E46E41AA41000254F
:40134000A54204D056F8253098470135F8E770BD641F0000641F0000641F00006C1F000010B5431E0A44914204D011F8014B03F8014FF8E710BD03460244934202D003F842
:40138000011BFAE7704700000CB430B5164B0C1E9DB01D6804DA8B232B604FF0FF301EE04FF40273ADF814300CBF234604F1FF33049307934FF6FF7302900690ADF81630FD
:4013C000209A21AB02A92846019300F0F9F8431CBCBF8B232B6014B1029B00221A701DB0BDE8304002B070474881FF1F2DE9F0470F4680463F48D0F800903D4615F8014B63
:4014000009EB0400407800F0080000F0FF0608B12F46F2E72D2C03D1BD1C7C78012603E02B2C04BF7C78BD1C13B1102B0AD15BE0302C57D1287800F0DF0058284DD16C7893
:4014400010230235002E14BF4FF0004C6FF0004CBCFBF3FA0027384603FB1ACC09EB040E9EF801E01EF0040F01D0303C0BE01EF0030E1BD0BEF1010F0CBF4FF0370E4FF081
:40148000570ECEEB0404A34210DDB7F1FF3F0AD0504506D801D1644503DC03FB0040012701E04FF0FF3715F8014BD7E77B1C0CD1002E4FF0220314BF4FF000406FF00040DD
:4014C000C8F800302AB9BDE8F08706B1404272B107B1691E1160BDE8F0873024002BB1D10823AFE70A23ADE7302CA3D0AAE7BDE8F08700BF4C81FF1F13460A4601460248F2
:401500000068FFF773BF00BF4881FF1F2DE9F0478E6882469E420C46914698463ED88A8912F4906F3AD02568096902236F1A656905EB450595FBF3F57B1C43449D4238BF2A
:401540001D4653050FD5294600F040FB064698B13A462169FFF704FFA38923F4906343F08003A38113E02A4600F08EFB064670B92169504600F0DEFA0C23CAF80030A38904
:401580004FF0FF3043F04003A381BDE8F08726613E44266046466561ED1BA560464528BF464649463246206800F0A8FAA36800209B1BA36023681E442660BDE8F087000087
:4015C0002DE9F04F9DB003938B8980461C060D4616460DD50B695BB9402100F0F7FA2860286118B90C23C8F80030CDE040236B610023099320238DF82930DFF89CB1302328
:401600008DF82A3037463C4614F8013B1BB9B7EB060910D003E0252BF9D02746F3E74B46324629464046FFF771FF013000F0A780099B4B4409933B78002B00F0A080002350
:401640004FF0FF3204930793059206938DF853301A930126052221784E4800F041FA671C049B38B14B4A3C46801A06FA00F018430490EFE7D90644BF20228DF853201A078E
:4016800044BF2B228DF8532022782A2A03D0079A00210A200BE0039A111D12680391002A10DA524243F00200079204900BE027463B780134303B092B03D800FB023201215C
:4016C000F5E701B107923B782E2B1ED17B782A2B0AD1039B02371A1D1B680392002BB8BF4FF0FF33059310E0002319460593781C0A2407463A780130303A092A03D804FB61
:4017000001210123F5E703B1059103223978224800F0E6F940B14023CBEB000003FA00F0049B013718430490397806221B487E1C8DF8281000F0D4F988B1194B33B9039BFA
:40174000073323F007030833039314E003AB00932A46144B04A94046AFF3008007E003AB00932A460F4B04A9404600F093F8B0F1FF3F824603D0099B5344099342E7AB899A
:401780005B0601D4099801E04FF0FF301DB0BDE8F08F00BF251F00002B1F00002F1F0000000000000D1500002DE9F04791461F460A698B6806469342B8BF1346C9F8003084
:4017C00091F843200C46DDF8208012B10133C9F800302368990642BFD9F800300233C9F80030256815F0060510D104F1190A07E00123524639463046C04701301AD0013576
:40180000E368D9F800209B1A9D42F1DB94F843302268003318BF012392060FD5E118302081F843005A1C94F845102244023382F8431003E04FF0FF30BDE8F08704F143026E
:4018400039463046C0470130F4D02268D9F80050E36802F00602042A08BF5D1B2269A3680CBF25EAE57500259342C4BF9B1AED184FF000091A344D4509D00123224639460D
:401880003046C0470130D5D009F10109F3E70020BDE8F0872DE9F04317460A7E85B06E2A984606460C460C9B01F1430E00F0AE8011D8632A22D009D8002A00F0BB80582A1C
:4018C00040F0CA8081F84520834955E0642A1ED0692A1CD0C0E0732A00F0B08009D86F2A2ED0702A40F0B8800A6842F020020A603EE0752A24D0782A3AD0ADE01A6801F12F
:401900004205111D1960136884F84230A8E021681A6811F0800F02D0111D196008E011F0400F02F10401196002D0B2F9003000E01368002B3CDA2D225B4284F8432037E0E0
:4019400021681A6811F0800F02D0111D196007E011F0400F02F10401196001D0138800E01368227E5C496F2A14BF0A2208221BE078225A4984F845202268186812F0800F29
:4019800000F104051D6003D1550601D5038800E00368D00744BF42F0200222601BB9226822F0200222601022002084F8430001E049490A226568002DA56008DB206820F0E7
:4019C000040020602BB9002D7DD175460CE0002B79D07546B3FBF2F002FB1033CB5C05F8013D03460028F5D1082A0BD12368DA0708D5236962689A42DEBF302305F8013C12
:401A000005F1FF35C5EB0E0323612EE008681A6810F0800F496903D0101D1860136808E010F0400F02F104001860136801D0198000E0196000232361754616E01A68111D17
:401A40001960156800216268284600F049F808B1401B6060636804E004F1420584F8422001232361002384F84330CDF800803B4603AA21463046FFF797FE013002D14FF071
:401A8000FF3026E023692A4639463046C0470130F5D023689B0710D5002504F1190907E001234A4639463046C0470130E7D00135E368039A9B1A9D42F2DBE068039B9842F7
:401AC000B8BF184605E00B7804F1420584F842308AE705B0BDE8F083361F0000471F000010B5C9B202449042034605D01C7801308C42F8D1184610BD002010BD884210B50D
:401B000001EB020301D8421E0BE09842FBD28118D21AD34204D013F8014D01F8014DF8E710BD994204D011F8014B02F8014FF8E710BD000038B50546002944D051F8043C37
:401B40000C1F002BB8BFE41800F0D4F81E4A1368114613B96360146030E0A3420DD92268A018834201BF18685B681218226063600C6023E0A24203D813465A68002AF9D112
:401B800018681918A1420BD12168014458188242196013D110685268014419605A600DE002D90C232B6009E021686018824201BF106852680918216062605C602846BDE857
:401BC000384000F098B838BDA081FF1F70B5CD1C25F0030508350C2D38BF0C25002D064601DBA94202D90C23336046E000F082F8234B1C681A462146A1B10B685B1B0ED4ED
:401C00000B2B03D90B60CC18CD501EE08C420BBF63684B681360636018BF0C4615E00C464968E9E7174C23681BB9304600F052F820602946304600F04DF8431C18D0C41CB8
:401C400024F00304A0420DD12560304600F053F804F10B00231D20F00700C31A0ED05A42E25070BD211A304600F034F80130EBD10C233360304600F03EF8002070BD00BF22
:401C8000A081FF1F9C81FF1FF8B5074615460E4621B91146BDE8F840FFF798BF1AB9FFF749FF2846F8BD00F027F885420ED929463846FFF78BFF044650B131462A46FFF720
:401CC0004FFB31463846FFF735FF01E03046F8BD2046F8BD38B5064C0023054608462360FEF778FD431C02D1236803B12B6038BDD081FF1F7047704751F8040C0028BEBFA0
:401D0000091851F8043CC01804387047000000002D4E414D454F462D204172656120436F6E74726F6C6C6572000000005374617274696E673A2000007B202253656E7349FC
:401D40006422203A2025642C202253656E735479706522203A2025642C202253656E7356616C22203A202564207D00007B20224143496422203A2025642C202241434E7558
:401D80006D4163747322203A2025642C202241434E756D53656E7322203A2025642C202241434465736322203A202573207D00003D5100403D5100403D5100400102040073
:401DC00000000100005B0040005B004020400000035B00402443004040000000004F00400C00405100403000C05100401000F0510040100000000140001000140140800013
:401E000000150140000700400140000A004C01400002005001402000801401400004004880004300002020202020202020202828282828202020202020202020202020200E
:401E40002020202020881010101010101010101010101010100404040404040404040410101010101010414141414141010101010101010101010101010101010101010118
:401E800010101010101042424242424202020202020202020202020202020202020202021010101020000000000000000000000000000000000000000000000000000000AE
:401EC00000000000000000000000000000000000000000000000000000000000000000000000000000000000000000000000000000000000000000000000000000000000E2
:401F000000000000000000000000000000000000000000000000000000000000000000000000000000232D302B2000686C4C006566674546470030313233343536373839A5
:401F4000414243444546003031323334353637383961626364656600F8B500BFF8BC08BC9E4670474D00000051080000F8B500BFF8BC08BC9E46704729000000901F0000EE
:401F8000C880FF1F88000000880000000000000000000000FF000000D881FF1F0000E02EC05D00001800000000366E0101FFFF00000000000000000000000000000000004E
:401FC00000000000000000000000000000000000221E00000000000000000000000000000000000000000000000000000000000000000000000000000000000000000000A1
:4020000000000000000000000000000000000000E880FF1F241E000000000000000000000000000000000000000000000000000000000000000000000000000000000000D8
:402040000000000000000000000000000000000000000000000000000000000000000000000000000000000000000000000000000000000000000000000000000000000060
:402080000000000000000000000000000000000000000000000000000000000000000000000000000000000000000000000000000000000000000000000000000000000020
:4020C00000000000000000000000000000000000000000000000000000000000000000000000000000000000000000000000000000000000000000000000000000000000E0
:40210000000000000000000000000000000000000000000000000000000000000000000000000000000000000000000000000000000000000000000000000000000000009F
:020000040003F7
:0200000480007A
:40000000024F0040075200400164004002650040030501406206014038070140020B0140061401403D150140451601404117014001190140011B01400240014008410140A2
:400040000A4201400A430140024401400545014006460140024701400D4801400C490140024C0140024D0140065001400151014001100A870006010C020F10041104184080
:400080001C80860F857286388302E004EE01010A03140513070409130B0C0D030F141308152017C01D801F202140232025E029E02F15330F35E037103B083F404023410654
:4000C000450B460C47E0482549FF4AFF4BFF4EF04F44500C540159045A045B045C205D225F0166C06A406B0280DC8222840C867189118B068C098D0C8ED08F139203930CA7
:400100009410951196AC970E9C109E409F08A414AD20AE20AF03B01FB130B4E0B70FB808B902BA20BB80BE04C002C604C9FFCA07CBFFCC40CD20CEF0CF05D008D804D904F1
:40014000DA04DB04DC22DD02DF01E040E1A8E240E3200006020209840A4010011304180419041AC8200221402202242025042640272428012C012FA8318032063602374485
:40018000382039803C063D203F804204451947224E044F0451885501564057405D085E805F12682069546F0281408F02A702C00DC20DC405CAF8CCDBCEFCD064D220D6F0D9
:4001C000E640E004EE0122012A0136013E4058045F01062507500C090E450F801080112014801520170419801E672401251027102EA42F80360137643C103E4A448045103A
:40020000468047084C804E044F80561058045A0C5E206C146F297408760F7720838085109010942998809B4C9C059D809E109F11A601A7A8B404C0F0C2F0C47ACAF0CCF092
:40024000CEF0D0E0D230D620EC10EE400402080212081404170818011D021E041F112002210123322503260829032A042C042D04300431033208332034023518360137046F
:4002800038023E443F5054185604580459045B045C225D205F01802084028502860487018C018D048E068F039201961098309B049D08A008A101A302A402A604A830B007A4
:4002C000B208B430B507B708B820BE14BF40D809D909DC99DF0100060140042809080A480C040D120E0210201102132014011610171119091A441C081D021F44200421903B
:40030000221024102680274829012E402FA83250374439445C0165826708791081818280850288848B409154928896049B249D089F40A021A109A7A8A904AC01AD08AE4028
:40034000AF10C06DC2FEC4FECAF1CC5CCE0AD680D8B0DE04E680EC01EC01EC103380CC10501154805D806E08A780D4E0D620DA805B0294229B029D80A480A604A780AB02A7
:40038000D640EE80730882048F0894229D80A480A604A780DC20E6207E20DE0107405702A620C004D60445088302A620A702AB40D001A508A6202510800181808302878023
:4003C000888094229D80A480A780C820E220E6B00E080F045F02820487049B02B410B510C280D680E040E420A508AA20B508EC0800040A04100411011A041B01000300003D
:40040000021000001C0823000400000408FF00003F1C00E10CC0000033180C001F8020000044230003E70018013C00C2000000E30000101F0F382CC00000A20800000400DB
:400440006405020003C0E0000AFFFFFF62A0F0410C0000000000021104040404222200010000000000004002001030100010101200000000000000000000000000000000FC
:40048000000F0F000F0F0000000B0B0000000000027E7C0004000000400080404000400007000000BB0018010000000000000000000000000000000000000000000000008F
:4004C00000000000000000000000000000000000000000000000000000000000000000000000000000000000000000000000000000000000000000000000000000000000FC
:4005000000000000000000000000000000000000000000000000000000000000000000000000000000000000000000000000000000000000000000000000000000000000BB
:40054000000000000000000000000000000000000000000000000000000000000000000000000000000000000000000000000000000000000000000000000000000000007B
:40058000000000000000000000000000000000000000000000000000000000000000000000000000000000000000000000000000000000000000000000000000000000003B
:0200000490006A
:0400000000004005B7
:0200000490105A
:04000000BC90ACAF55
:0200000490303A
:02000000112FBE
:0200000490402A
:4000000000000000000000000000000000000000000000000000000000000000000000000000000000000000000000000000000000000000000000000000000000000000C0
:400040000000000000000000000000000000000000000000000000000000000000000000000000000000000000000000000000000000000000000000000000000000000080
:400080000000000000000000000000000000000000000000000000000000000000000000000000000000000000000000000000000000000000000000000000000000000040
:4000C0000000000000000000000000000000000000000000000000000000000000000000000000000000000000000000000000000000000000000000000000000000000000
:0200000490501A
:0C00000000012E16106900012E2221982C
:00000001FF